:04000000F4EF12F017
:10060000004E6F206576656E740048483A4D4D3A4D
:1006100053530044443A4D4D3A59590044555220E1
:100620002D0054494D452D0054494D45200044416D
:100630005445200054696D65004475720020200007
:07064000414D00504D000088
:100648004D6E52C049F053C04AF054C04BF055C0EB
:100658004CF0020E4D18D8A434EF03F036EF03F037
:100668006DEF03F0000E026E000E016E000E046EB8
:10067800000E036E50EF03F0034A042A500E0318CD
:1006880007E1C30E0418D8A44CEF03F04EEF03F0B3
:1006980050EF03F0C9EF06F0010E56EC12F0020A13
:1006A800D8B459EF03F05BEF03F040EF03F0060E08
:1006B8001418D8B462EF03F064EF03F067EF03F0A7
:1006C800142A1EEF04F0000E146E1EEF04F01EEF45
:1006D80004F04D04D8A473EF03F075EF03F01EEF98
:1006E80004F0000E046E000E036E8DEF03F0034A53
:1006F800042A500E031807E1C30E0418D8A487EF84
:1007080003F089EF03F08DEF03F089EC0FF0C9EFE8
:1007180006F0010E56EC12F0E806D8B496EF03F096
:1007280098EF03F07BEF03F01450D8A49EEF03F08A
:10073800A0EF03F0AEEF03F01A2A020E1A18D8A49D
:10074800A8EF03F0AAEF03F01EEF04F0000E1A6EF4
:100758001EEF04F01404D8A4B4EF03F0B6EF03F0CE
:10076800C4EF03F01F2A3C0E1F18D8A4BEEF03F0F5
:10077800C0EF03F01EEF04F0000E1F6E1EEF04F032
:10078800020E1418D8A4CBEF03F0CDEF03F0DBEF83
:1007980003F0202A0C0E2018D8A4D5EF03F0D7EFC9
:1007A80003F01EEF04F0000E206E1EEF04F0030E9F
:1007B8001418D8A4E2EF03F0E4EF03F0F2EF03F02B
:1007C800172A0C0E1718D8A4ECEF03F0EEEF03F07D
:1007D8001EEF04F0000E176E1EEF04F0040E14183E
:1007E800D8A4F9EF03F0FBEF03F009EF04F0162AA1
:1007F8003C0E1618D8A403EF04F005EF04F01EEF22
:1008080004F0000E166E1EEF04F0050E1418D8A49E
:1008180010EF04F012EF04F01EEF04F0152A3C0E5E
:100828001518D8A41AEF04F01CEF04F06BEF03F0CE
:10083800000E156E1450D8A424EF04F026EF04F02F
:1008480060EF04F0014A022A025007E1960E015CAB
:10085800D8B031EF04F033EF04F03DEF04F03D0E73
:10086800366E060E376E8C0E386E91EC12F070EF05
:1008780004F02C0E011806E10204D8A446EF04F097
:1008880048EF04F04EEF04F0000E026E000E016E09
:1008980070EF04F01A50020D490EF324D96E000EC1
:1008A800F420DA6EDECF36F0DDCF37F08C0E386EFE
:1008B80091EC12F070EF04F01A50020D490EF32477
:1008C800D96E000EF420DA6EDECF36F0DDCF37F0C9
:1008D8008C0E386E91EC12F01404D8A476EF04F064
:1008E80078EF04F0C2EF04F0014A022A025007E14F
:1008F800960E015CD8B083EF04F085EF04F091EF19
:1009080004F0890E3C6E200EC6EC13F08A0E3C6E85
:10091800200EC6EC13F0E0EF04F02C0E011806E1EF
:100928000204D8A49AEF04F09CEF04F0A2EF04F0BC
:10093800000E026E000E016EE0EF04F0890E3C6EB0
:100948001FC034F0356A000E376E0A0E366EC6ECDC
:1009580010F03450300FC6EC13F08A0E3C6E1FC0F6
:1009680034F0356A000E376E0A0E366E28EC11F038
:100978003450300FC6EC13F0E0EF04F0890E3C6EF3
:100988001FC034F0356A000E376E0A0E366EC6EC9C
:1009980010F03450300FC6EC13F08A0E3C6E1FC0B6
:1009A80034F0356A000E376E0A0E366E28EC11F0F8
:1009B8003450300FC6EC13F0020E1418D8A4E7EF29
:1009C80004F0E9EF04F033EF05F0014A022A02507F
:1009D80007E1960E015CD8B0F4EF04F0F6EF04F0EE
:1009E80002EF05F0860E3C6E200EC6EC13F0870E63
:1009F8003C6E200EC6EC13F051EF05F02C0E0118DA
:100A080006E10204D8A40BEF05F00DEF05F013EF93
:100A180005F0000E026E000E016E51EF05F0860E15
:100A28003C6E20C034F0356A000E376E0A0E366E02
:100A3800C6EC10F03450300FC6EC13F0870E3C6E45
:100A480020C034F0356A000E376E0A0E366E28EC78
:100A580011F03450300FC6EC13F051EF05F0860E4C
:100A68003C6E20C034F0356A000E376E0A0E366EC2
:100A7800C6EC10F03450300FC6EC13F0870E3C6E05
:100A880020C034F0356A000E376E0A0E366E28EC38
:100A980011F03450300FC6EC13F0030E1418D8A41C
:100AA80058EF05F05AEF05F0A4EF05F0014A022AC5
:100AB800025007E1960E015CD8B065EF05F067EFCC
:100AC80005F073EF05F0C60E3C6E200EC6EC13F071
:100AD800C70E3C6E200EC6EC13F040EF06F02C0E4D
:100AE800011806E10204D8A47CEF05F07EEF05F0BA
:100AF80084EF05F0000E026E000E016E40EF06F066
:100B0800C60E3C6E17C034F0356A000E376E0A0EFA
:100B1800366EC6EC10F03450300FC6EC13F0C70E2A
:100B28003C6E17C034F0356A000E376E0A0E366E0A
:100B380028EC11F03450300FC6EC13F040EF06F0FB
:100B4800040E1418D8A4ABEF05F0ADEF05F0F3EFE1
:100B580005F0014A022A025007E1960E015CD8B05E
:100B6800B8EF05F0BAEF05F0C6EF05F0C90E3C6E18
:100B7800200EC6EC13F0CA0E3C6E200EC6EC13F025
:100B880040EF06F02C0E011806E10204D8A4CFEFBE
:100B980005F0D1EF05F0D3EF05F07EEF05F0C90EB3
:100BA8003C6E16C034F0356A000E376E0A0E366E8B
:100BB800C6EC10F03450300FC6EC13F0CA0E3C6E81
:100BC80016C034F0356A000E376E0A0E366E28EC01
:100BD80011F03450300FC6EC13F040EF06F0050E5C
:100BE8001418D8A4FAEF05F0FCEF05F040EF06F072
:100BF800014A022A025007E1960E015CD8B007EFBD
:100C080006F009EF06F015EF06F0CC0E3C6E200E4C
:100C1800C6EC13F0CD0E3C6E200EC6EC13F040EF80
:100C280006F02C0E011806E10204D8A41EEF06F007
:100C380020EF06F022EF06F07EEF05F0CC0E3C6EBA
:100C480015C034F0356A000E376E0A0E366EC6ECE3
:100C580010F03450300FC6EC13F0CD0E3C6E15C0BA
:100C680034F0356A000E376E0A0E366E28EC11F035
:100C78003450300FC6EC13F0050E1418D8B447EFF3
:100C880006F049EF06F067EF06F0CC0E3C6E15C093
:100C980034F0356A000E376E0A0E366EC6EC10F068
:100CA8003450300FC6EC13F0CD0E3C6E15C034F046
:100CB800356A000E376E0A0E366E28EC11F0345085
:100CC800300FC6EC13F0040E1418D8B46EEF06F00B
:100CD80070EF06F08EEF06F0C90E3C6E16C034F0C9
:100CE800356A000E376E0A0E366EC6EC10F03450B8
:100CF800300FC6EC13F0CA0E3C6E16C034F0356ADD
:100D0800000E376E0A0E366E28EC11F03450300F94
:100D1800C6EC13F0CB0E3C6E3A0EC6EC13F0030E85
:100D28001418D8B49AEF06F09CEF06F0BAEF06F064
:100D3800C60E3C6E17C034F0356A000E376E0A0EC8
:100D4800366EC6EC10F03450300FC6EC13F0C70EF8
:100D58003C6E17C034F0356A000E376E0A0E366ED8
:100D680028EC11F03450300FC6EC13F0C80E3C6E6E
:100D78003A0EC6EC13F0880E3C6E3A0EC6EC13F031
:100D88008B0E3C6E200EC6EC13F01200416E020E64
:100D98004118D8A4D2EF06F0D4EF06F00AEF07F016
:100DA800000E0A6E000E096E000E0C6E000E0B6E21
:100DB800EFEF06F00B4A0C2A500E0B1807E1C30E92
:100DC8000C18D8A4EAEF06F0ECEF06F0EFEF06F007
:100DD800010E37EF09F0010E56EC12F0020AD8B4F2
:100DE800F8EF06F0FAEF06F0DEEF06F0020E19183B
:100DF800D8B401EF07F003EF07F006EF07F0192A60
:100E080090EF07F0000E196E90EF07F04104D8A498
:100E180010EF07F012EF07F090EF07F0000E0C6EDE
:100E2800000E0B6E85EF07F00B4A0C2A500E0B18BC
:100E380007E1C30E0C18D8A424EF07F026EF07F03B
:100E480085EF07F01EC034F0356A000E376E0A0EC3
:100E5800366E28EC11F034C03EF035C03FF01EC0AD
:100E680034F0356A000E376E0A0E366EC6EC10F096
:100E78003438F00B3E10406E40C035F0000EAAEC3E
:100E880013F01FC034F0356A000E376E0A0E366E46
:100E980028EC11F034C03EF035C03FF01FC034F0EC
:100EA800356A000E376E0A0E366EC6EC10F034380E
:100EB800F00B3E10406E40C035F0010EAAEC13F066
:100EC80020C034F0356A000E376E0A0E366E28ECF4
:100ED80011F034C03EF035C03FF020C034F0356A20
:100EE800000E376E0A0E366EC6EC10F03438F00B72
:100EF8003E10406E40C035F0020EAAEC13F0ECEF45
:100F080006F0010E56EC12F0E806D8B48EEF07F0A2
:100F180090EF07F018EF07F01950D8A496EF07F0F4
:100F280098EF07F0F6EF07F04104D8A49EEF07F01A
:100F3800A0EF07F0ACEF07F01E2A3C0E1E18D8A44D
:100F4800A8EF07F0AAEF07F0ACEF07F0000E1E6E4F
:100F5800094A0A2A0A5007E1960E095CD8B0B7EF89
:100F680007F0B9EF07F0C5EF07F0CA0E3C6E200E88
:100F7800C6EC13F0CB0E3C6E200EC6EC13F0B9EFA6
:100F880008F02C0E091806E10A04D8A4CEEF07F0E1
:100F9800D0EF07F0D6EF07F0000E0A6E000E096ECC
:100FA800B9EF08F0CA0E3C6E1EC034F0356A000E68
:100FB800376E0A0E366EC6EC10F03450300FC6ECA1
:100FC80013F0CB0E3C6E1EC034F0356A000E376E3F
:100FD8000A0E366E28EC11F03450300FC6EC13F0C0
:100FE800B9EF08F01904D8A4FCEF07F0FEEF07F0FA
:100FF80058EF08F04104D8A404EF08F006EF08F011
:1010080012EF08F01F2A3C0E1F18D8A40EEF08F0A4
:1010180010EF08F012EF08F0000E1F6E094A0A2AB6
:101028000A5007E1960E095CD8B01DEF08F01FEFD3
:1010380008F02BEF08F0C70E3C6E200EC6EC13F03C
:10104800C80E3C6E200EC6EC13F0B9EF08F02C0E5B
:10105800091806E10A04D8A434EF08F036EF08F0BE
:1010680038EF08F0D0EF07F0C70E3C6E1FC034F021
:10107800356A000E376E0A0E366EC6EC10F0345024
:10108800300FC6EC13F0C80E3C6E1FC034F0356A42
:10109800000E376E0A0E366E28EC11F03450300F01
:1010A800C6EC13F0B9EF08F0020E1918D8A45FEFD8
:1010B80008F061EF08F0B9EF08F04104D8A467EF31
:1010C80008F069EF08F075EF08F0202A0C0E2018D8
:1010D800D8A471EF08F073EF08F075EF08F0000E70
:1010E800206E094A0A2A0A5007E1960E095CD8B010
:1010F80080EF08F082EF08F08EEF08F0C40E3C6E27
:10110800200EC6EC13F0C50E3C6E200EC6EC13F094
:10111800B9EF08F02C0E091806E10A04D8A497EFD5
:1011280008F099EF08F09BEF08F0D0EF07F0C40E35
:101138003C6E20C034F0356A000E376E0A0E366EEB
:10114800C6EC10F03450300FC6EC13F0C50E3C6EF0
:1011580020C034F0356A000E376E0A0E366E28EC61
:1011680011F03450300FC6EC13F0020E1918D8B431
:10117800C0EF08F0C2EF08F0E0EF08F0C40E3C6ED4
:1011880020C034F0356A000E376E0A0E366EC6EC93
:1011980010F03450300FC6EC13F0C50E3C6E20C072
:1011A80034F0356A000E376E0A0E366E28EC11F0F0
:1011B8003450300FC6EC13F0C60E3C6E3A0EC6EC37
:1011C80013F01904D8B4EBEF08F0EDEF08F00BEFCB
:1011D80009F0C70E3C6E1FC034F0356A000E376E3A
:1011E8000A0E366EC6EC10F03450300FC6EC13F011
:1011F800C80E3C6E1FC034F0356A000E376E0A0EFA
:10120800366E28EC11F03450300FC6EC13F0C90ECE
:101218003C6E3A0EC6EC13F01950D8B416EF09F02C
:1012280018EF09F036EF09F0CA0E3C6E1EC034F014
:10123800356A000E376E0A0E366EC6EC10F0345062
:10124800300FC6EC13F0CB0E3C6E1EC034F0356A7E
:10125800000E376E0A0E366E28EC11F03450300F3F
:10126800C6EC13F0050E1200416E020E4118D8A408
:1012780040EF09F042EF09F078EF09F0000E066E32
:10128800000E056E000E086E000E076E5DEF09F089
:10129800074A082A500E071807E1C30E0818D8A4F1
:1012A80058EF09F05AEF09F05DEF09F0010EA5EFCC
:1012B8000BF0010E56EC12F0020AD8B466EF09F0F2
:1012C80068EF09F04CEF09F0020E1818D8B46FEF68
:1012D80009F071EF09F074EF09F0182AFEEF09F030
:1012E800000E186EFEEF09F04104D8A47EEF09F055
:1012F80080EF09F0FEEF09F0000E086E000E076E91
:10130800F3EF09F0074A082A500E071807E1C30E41
:101318000818D8A492EF09F094EF09F0F3EF09F058
:101328001BC034F0356A000E376E0A0E366E28EC94
:1013380011F034C03EF035C03FF01BC034F0356AC0
:10134800000E376E0A0E366EC6EC10F03438F00B0D
:101358003E10406E40C035F0060EAAEC13F01CC0DB
:1013680034F0356A000E376E0A0E366E28EC11F02E
:1013780034C03EF035C03FF01CC034F0356A000E72
:10138800376E0A0E366EC6EC10F03438F00B3E108D
:10139800406E40C035F0050EAAEC13F01DC034F0C5
:1013A800356A000E376E0A0E366E28EC11F034C01E
:1013B8003EF035C03FF01DC034F0356A000E376E80
:1013C8000A0E366EC6EC10F03438F00B3E10406E44
:1013D80040C035F0040EAAEC13F05AEF09F0010EE4
:1013E80056EC12F0E806D8B4FCEF09F0FEEF09F06D
:1013F80086EF09F01850D8A404EF0AF006EF0AF0B7
:1014080064EF0AF04104D8A40CEF0AF00EEF0AF0DA
:101418001AEF0AF01B2A640E1B18D8A416EF0AF05C
:1014280018EF0AF01AEF0AF0000E1B6E054A062A9A
:10143800065007E1960E055CD8B025EF0AF027EFB5
:101448000AF033EF0AF0CA0E3C6E200EC6EC13F019
:10145800CB0E3C6E200EC6EC13F027EF0BF02C0ED3
:10146800051806E10604D8A43CEF0AF03EEF0AF09E
:1014780044EF0AF0000E066E000E056E27EF0BF023
:10148800CA0E3C6E1BC034F0356A000E376E0A0E69
:10149800366EC6EC10F03450300FC6EC13F0CB0E9D
:1014A8003C6E1BC034F0356A000E376E0A0E366E7D
:1014B80028EC11F03450300FC6EC13F027EF0BF086
:1014C8001804D8A46AEF0AF06CEF0AF0C6EF0AF025
:1014D8004104D8A472EF0AF074EF0AF080EF0AF022
:1014E8001C2A0D0E1C18D8A47CEF0AF07EEF0AF017
:1014F80080EF0AF0000E1C6E054A062A065007E126
:10150800960E055CD8B08BEF0AF08DEF0AF099EFD4
:101518000AF0C70E3C6E200EC6EC13F0C80E3C6EE7
:10152800200EC6EC13F027EF0BF02C0E051806E181
:101538000604D8A4A2EF0AF0A4EF0AF0A6EF0AF076
:101548003EEF0AF0C70E3C6E1CC034F0356A000E40
:10155800376E0A0E366EC6EC10F03450300FC6ECFB
:1015680013F0C80E3C6E1CC034F0356A000E376E9E
:101578000A0E366E28EC11F03450300FC6EC13F01A
:1015880027EF0BF0020E1818D8A4CDEF0AF0CFEF12
:101598000AF027EF0BF04104D8A4D5EF0AF0D7EFF3
:1015A8000AF0E3EF0AF01D2A1E0E1D18D8A4DFEF7B
:1015B8000AF0E1EF0AF0E3EF0AF0000E1D6E054AAB
:1015C800062A065007E1960E055CD8B0EEEF0AF041
:1015D800F0EF0AF0FCEF0AF0C40E3C6E200EC6ECE9
:1015E80013F0C50E3C6E200EC6EC13F027EF0BF07F
:1015F8002C0E051806E10604D8A405EF0BF007EF3A
:101608000BF009EF0BF03EEF0AF0C40E3C6E1DC064
:1016180034F0356A000E376E0A0E366EC6EC10F0DE
:101628003450300FC6EC13F0C50E3C6E1DC034F0BC
:10163800356A000E376E0A0E366E28EC11F03450FB
:10164800300FC6EC13F0020E1818D8B42EEF0BF0BA
:1016580030EF0BF04EEF0BF0C40E3C6E1DC034F0B3
:10166800356A000E376E0A0E366EC6EC10F034502E
:10167800300FC6EC13F0C50E3C6E1DC034F0356A51
:10168800000E376E0A0E366E28EC11F03450300F0B
:10169800C6EC13F0C60E3C6E2D0EC6EC13F0180403
:1016A800D8B459EF0BF05BEF0BF079EF0BF0C70EE6
:1016B8003C6E1CC034F0356A000E376E0A0E366E6A
:1016C800C6EC10F03450300FC6EC13F0C80E3C6E68
:1016D8001CC034F0356A000E376E0A0E366E28ECE0
:1016E80011F03450300FC6EC13F0C90E3C6E2D0EBD
:1016F800C6EC13F01850D8B484EF0BF086EF0BF05B
:10170800A4EF0BF0CA0E3C6E1BC034F0356A000E15
:10171800376E0A0E366EC6EC10F03450300FC6EC39
:1017280013F0CB0E3C6E1BC034F0356A000E376EDA
:101738000A0E366E28EC11F03450300FC6EC13F058
:10174800060E1200B9EC13F0010E506E020E56ECA4
:1017580012F0516E5104D8B4B4EF0BF0B6EF0BF0A1
:10176800BFEF0BF0020E5118D8A4BDEF0BF0BFEF7E
:101778000BF065EF0CF05004D8A4C5EF0BF0C7EFE1
:101788000BF065EF0CF0020E506E000E516E000E5D
:10179800216E000E346E010E63EC13F0040E4E6ED3
:1017A8003E0EE82EFED74E2EFCD765EF0CF0000E4D
:1017B800216E39EC10F0AAEF0BF0515094EC0CF0BC
:1017C800506E020E5018D8B4ECEF0BF0EEEF0BF0A1
:1017D800AAEF0BF0000E216E000E346E010E63ECC2
:1017E80013F0040E4E6E3E0EE82EFED74E2EFCD79A
:1017F800AAEF0BF051501CEC0EF0506E040E50186E
:10180800D8B409EF0CF00BEF0CF0AAEF0BF0000EB8
:10181800346E010E63EC13F0040E4E6E3E0EE82E8D
:10182800FED74E2EFCD7D4EC11F0AAEF0BF0515096
:1018380061EC0DF0506E030E5018D8B426EF0CF082
:1018480028EF0CF0AAEF0BF0000E346E010E63ECDB
:1018580013F010EF0CF00A0E366E060E376E840E7B
:10186800386E91EC12F05150CAEC06F0506EAAEFA7
:101878000BF0130E366E060E376E840E386E91EC32
:1018880012F0515038EC09F0506EAAEF0BF051509D
:10189800D7EC0EF0AAEF0BF0340E366E060E376E4C
:1018A800800E386E91EC12F0390E366E060E376ED9
:1018B800C00E386E91EC12F0515024EC03F0AAEFF0
:1018C8000BF050504E6E4F6A4F50000AD8B46FEF6D
:1018D8000CF0AAEF0BF04E50010AD8B4DBEF0BF076
:1018E800030AD8B4E1EF0BF0010AD8B41BEF0CF0EF
:1018F800070AD8B4FEEF0BF0010AD8B42FEF0CF0AA
:10190800030AD8B43DEF0CF0010AD8B450EF0CF03C
:101918000F0AD8B44BEF0CF0AAEF0BF000EF00F071
:101928003E6E3E04D8A49BEF0CF09DEF0CF0D4EF74
:101938000CF081A0A2EF0CF0A5EF0CF08180A6EFCF
:101948000CF08190000E126E000E116EBEEF0CF0BE
:10195800114A122A500E111807E1C30E1218D8A402
:10196800B8EF0CF0BAEF0CF0BEEF0CF02150030FFB
:1019780060EF0DF0010E56EC12F0E806D8B4C7EF90
:101988000CF0C9EF0CF0ACEF0CF02104D8A4CFEFA9
:101998000CF0D1EF0CF011EF0DF0210611EF0DF066
:1019A800020E3E18D8A4DBEF0CF0DDEF0CF011EFBF
:1019B8000DF081A0E2EF0CF0E5EF0CF08180E6EF8E
:1019C8000CF08190000E126E000E116EFDEF0CF0FF
:1019D800114A122A500E111807E1C30E1218D8A482
:1019E800F8EF0CF0FAEF0CF0FDEF0CF0010E60EFE1
:1019F8000DF0010E56EC12F0020AD8B406EF0DF005
:101A080008EF0DF0ECEF0CF02150D8A40EEF0DF01C
:101A180010EF0DF011EF0DF0212A2150D8A417EF87
:101A28000DF019EF0DF03DEF0DF0C00E3C6E200EDD
:101A3800C6EC13F021500F0D9C0EF324366E000EE9
:101A4800F420376E820E386E91EC12F0800E3C6EE8
:101A58002A0EC6EC13F021500F0DAB0EF324366E90
:101A6800000EF420376EC20E386E91EC12F05FEF64
:101A78000DF0800E3C6E200EC6EC13F021500F0DB9
:101A88008D0EF324366E000EF420376E820E386EFB
:101A980091EC12F0C00E3C6E2A0EC6EC13F02150E9
:101AA8000F0D9C0EF324366E000EF420376EC20E16
:101AB800386E91EC12F0020E12003E6E3E04D8A46D
:101AC80068EF0DF06AEF0DF098EF0DF0000E0E6E56
:101AD800000E0D6E82EF0DF00D4A0E2A500E0D18F5
:101AE80007E1C30E0E18D8A47CEF0DF07EEF0DF0C1
:101AF80082EF0DF02150070F1BEF0EF0010E56EC90
:101B080012F0E806D8B48BEF0DF08DEF0DF070EF02
:101B18000DF02104D8A493EF0DF095EF0DF0CCEF64
:101B28000DF02106CCEF0DF0020E3E18D8A49FEF61
:101B38000DF0A1EF0DF0CCEF0DF0000E0E6E000EC3
:101B48000D6EB8EF0DF00D4A0E2A500E0D1807E174
:101B5800C30E0E18D8A4B3EF0DF0B5EF0DF0B8EF23
:101B68000DF0010E1BEF0EF0010E56EC12F0020AFA
:101B7800D8B4C1EF0DF0C3EF0DF0A7EF0DF0215071
:101B8800D8A4C9EF0DF0CBEF0DF0CCEF0DF0212A62
:101B98002150D8A4D2EF0DF0D4EF0DF0F8EF0DF0EE
:101BA800C00E3C6E200EC6EC13F021500F0D600ED7
:101BB800F324366E000EF420376E820E386E91ECE8
:101BC80012F0800E3C6E2A0EC6EC13F021500F0D59
:101BD8006F0EF324366E000EF420376EC20E386E88
:101BE80091EC12F01AEF0EF0800E3C6E200EC6EC4F
:101BF80013F021500F0D510EF324366E000EF42011
:101C0800376E820E386E91EC12F0C00E3C6E2A0EC2
:101C1800C6EC13F021500F0D600EF324366E000E43
:101C2800F420376EC20E386E91EC12F0030E1200DB
:101C38003E6E3E04D8A423EF0EF025EF0EF053EFCE
:101C48000EF0000E106E000E0F6E3DEF0EF00F4AF4
:101C5800102A500E0F1807E1C30E1018D8A437EF3A
:101C68000EF039EF0EF03DEF0EF02150050FD6EFD4
:101C78000EF0010E56EC12F0E806D8B446EF0EF05E
:101C880048EF0EF02BEF0EF02104D8A44EEF0EF023
:101C980050EF0EF087EF0EF0210687EF0EF0020EE0
:101CA8003E18D8A45AEF0EF05CEF0EF087EF0EF056
:101CB800000E106E000E0F6E73EF0EF00F4A102A12
:101CC800500E0F1807E1C30E1018D8A46EEF0EF0CF
:101CD80070EF0EF073EF0EF0010ED6EF0EF0010E5E
:101CE80056EC12F0020AD8B47CEF0EF07EEF0EF03C
:101CF80062EF0EF02150D8A484EF0EF086EF0EF0BC
:101D080087EF0EF0212A2150D8A48DEF0EF08FEF27
:101D18000EF0B3EF0EF0C00E3C6E200EC6EC13F0C2
:101D280021500F0D7E0EF324366E000EF420376E10
:101D3800820E386E91EC12F0800E3C6E2A0EC6ECC4
:101D480013F021500F0D8D0EF324366E000EF42083
:101D5800376EC20E386E91EC12F0D5EF0EF0800E91
:101D68003C6E200EC6EC13F021500F0D6F0EF324BD
:101D7800366E000EF420376E820E386E91EC12F03B
:101D8800C00E3C6E2A0EC6EC13F021500F0D7E0ECD
:101D9800F324366E000EF420376EC20E386E91ECC6
:101DA80012F0040E12004A6E5650D8A4DEEF0EF060
:101DB800E0EF0EF0EAEF0EF0010E366E060E376E0B
:101DC800840E386E91EC12F088EF0FF04A04D8A414
:101DD800F0EF0EF0F2EF0EF0FDEF0EF01350D8B466
:101DE800F8EF0EF0FAEF0EF0FDEF0EF0130610EF1D
:101DF8000FF0020E4A18D8A404EF0FF006EF0FF008
:101E080010EF0FF01350565CD8A00DEF0FF00FEF46
:101E18000FF010EF0FF0132A000E4B6E3E0E4B24FE
:101E2800D96EDA6A000EDA2213500C0DF3504B24E7
:101E380080EC13F0DF6E4B2A0B0E4B6426EF0FF08D
:101E480028EF0FF012EF0FF0220E366E060E376EE7
:101E5800800E386E91EC12F0860E3C6E3E50C6EC49
:101E680013F0870E3C6E3F50C6EC13F0880E3C6EA4
:101E78003A0EC6EC13F0890E3C6E4050C6EC13F0D7
:101E88008A0E3C6E4150C6EC13F08B0E3C6E200E51
:101E9800C6EC13F08C0E3C6E4250C6EC13F08D0E5F
:101EA8003C6E4350C6EC13F01C0E366E060E376EB1
:101EB800C00E386E91EC12F0C60E3C6E4450C6EC63
:101EC80013F0C70E3C6E4550C6EC13F0C80E3C6EBE
:101ED8003A0EC6EC13F0C90E3C6E4650C6EC13F031
:101EE800CA0E3C6E4750C6EC13F0CB0E3C6E3A0E51
:101EF800C6EC13F0CC0E3C6E4850C6EC13F0CD0E79
:101F08003C6E4950C6EC13F0120020C034F0356A1C
:101F1800000E376E0A0E366EC6EC10F03450300FD5
:101F28003C6E20C034F0356A000E376E0A0E366EED
:101F380028EC11F03450300F3D6E1FC034F0356A74
:101F4800000E376E0A0E366EC6EC10F03450300FA5
:101F58003E6E1FC034F0356A000E376E0A0E366EBC
:101F680028EC11F03450300F3F6E1A04D8A4BFEF9C
:101F78000FF0C1EF0FF0C7EF0FF0500E406E4D0E8F
:101F8800416ECBEF0FF0410E406E4D0E416E17C003
:101F980034F0356A000E376E0A0E366EC6EC10F055
:101FA8003450300F426E17C034F0356A000E376E69
:101FB8000A0E366E28EC11F03450300F436E16C0FE
:101FC80034F0356A000E376E0A0E366EC6EC10F025
:101FD8003450300F446E16C034F0356A000E376E38
:101FE8000A0E366E28EC11F03450300F456E15C0CD
:101FF80034F0356A000E376E0A0E366EC6EC10F0F5
:102008003450300F466E15C034F0356A000E376E06
:102018000A0E366E28EC11F03450300F476E562AEF
:10202800050E5618D8A41BEF10F01DEF10F01FEF87
:1020380010F0000E566E000E486E3C0E4824D96E05
:10204800DA6A000EDA22DF50356E56500C0DF35066
:10205800482443EC13F0482A0B0E486436EF10F07E
:1020680038EF10F021EF10F01200020E95EC13F08B
:10207800396E39380F0B010B300F2B6E020E95ECB1
:1020880013F00F0B300F2C6E3A0E2D6E010E95ECDF
:1020980013F0396E39380F0B070B300F2E6E010E07
:1020A80095EC13F00F0B300F2F6E200E306E020ED2
:1020B80095EC13F0396E39AA64EF10F066EF10F062
:1020C8006CEF10F0410E316E4D0E326E70EF10F065
:1020D800500E316E4D0E326E000E336E280E366E77
:1020E800060E376EC00E386E91EC12F02B0E366E5F
:1020F800000E376EC50E386E91EC12F0040E95EC9A
:1021080013F0396E39380F0B030B300F226E040EA3
:1021180095EC13F00F0B300F236E2D0E246E050E69
:1021280095EC13F0396E39380F0B010B300F256E13
:10213800050E95EC13F00F0B300F266E2D0E276E43
:10214800060E95EC13F0396E39380F0B0F0B300F64
:10215800286E060E95EC13F00F0B300F296E000E4B
:102168002A6E2E0E366E060E376E800E386E91EC85
:1021780012F0220E366E000E376E850E386E91EC18
:1021880012F01200000E396E37BECFEF10F0CDEF0F
:1021980010F0D5EF10F0366C371ED8B0372A010E84
:1021A800396E35BEDCEF10F0DAEF10F0E2EF10F028
:1021B800346C351ED8B0352A010E391A000E3B6E24
:1021C800000E3A6E36503710D8B4EDEF10F0EFEF3E
:1021D80010F017EF11F0010E386EF7EF10F0D890ED
:1021E80036363736382A37AEFCEF10F0FEEF10F0EF
:1021F800F3EF10F0D8903A363B363650345C37500F
:102208003558D8A00AEF11F00CEF11F011EF11F0CA
:102218003650345E3750355A3A80D8903732363295
:10222800382EFEEF10F03950D8B41DEF11F01FEF23
:1022380011F023EF11F03A6C3B1ED8B03B2A3AC09C
:1022480034F03BC035F01200000E396E35BE31EF68
:1022580011F02FEF11F037EF11F0346C351ED8B0B4
:10226800352A010E396E37BE3EEF11F03CEF11F002
:1022780042EF11F0366C371ED8B0372A3650371077
:10228800D8B449EF11F04BEF11F06FEF11F0010ED8
:10229800386E53EF11F0D89036363736382A37AEC5
:1022A80058EF11F05AEF11F04FEF11F03650345C3F
:1022B80037503558D8A063EF11F065EF11F069EF8A
:1022C80011F03650345E3750355AD890373236329E
:1022D800382E5AEF11F03950D8B475EF11F077EF66
:1022E80011F07BEF11F0346C351ED8B0352A34C0AC
:1022F80034F035C035F01200000E956E9450F80B8E
:10230800946E8290C30E366ECD0EE82EFED7362E12
:10231800FCD700F0000E346E330E63EC13F01B0E86
:10232800366E9E0EE82EFED7362EFCD700D0000E55
:10233800346E330E63EC13F0A60EE82EFED700D0F1
:10234800000E346E330E63EC13F000D000D000F0B2
:10235800000E346E020E63EC13F0A60EE82EFED7C4
:1023680000D0000E346E380E63EC13F0A60EE82E83
:10237800FED700D0000E346E010E63EC13F0040E8D
:10238800366E3E0EE82EFED7362EFCD7000E346E83
:102398000C0E63EC13F0A60EE82EFED700D0120048
:1023A8002CC037F00F0E37162B38F00B3710206E75
:1023B8002E38F00B2F101F6E000E95EC13F0376EB1
:1023C800373A0F0E37163F0E3716000E95EC13F0FE
:1023D800386E38380F0B070B300F37101E6E410E52
:1023E8003118D8A4FAEF11F0FCEF11F009EF12F050
:1023F8004D0E3218D8A403EF12F005EF12F009EFD2
:1024080012F0000E1A6E0BEF12F0010E1A6E22383F
:10241800F00B23101D6E2538F00B2610206E28387F
:10242800F00B2910206E1200819A818C818E81B266
:1024380020EF12F022EF12F025EF12F0010E55EF07
:1024480012F0818A819C818E81B22DEF12F02FEFDC
:1024580012F032EF12F0020E55EF12F081B837EF9A
:1024680012F039EF12F03CEF12F00B0E55EF12F0AC
:10247800818A818C819E819E81B245EF12F047EF5F
:1024880012F04AEF12F0030E55EF12F081B84FEF39
:1024980012F051EF12F054EF12F00C0E55EF12F04B
:1024A800FF0E1200346E18EC12F0356E020E34185E
:1024B800D8A461EF12F063EF12F084EF12F0352820
:1024C800D8B469EF12F06BEF12F078EF12F05750B2
:1024D800D8B471EF12F073EF12F078EF12F0000E2B
:1024E800576E355090EF12F03528D8A47EEF12F0D1
:1024F80080EF12F08FEF12F0010E576E8FEF12F08F
:102508003404D8A48AEF12F08CEF12F08FEF12F097
:10251800355090EF12F0FF0E1200000E346E385056
:1025280063EC13F0AEEF12F0010E346E36C0F6FF16
:1025380037C0F7FFF86A050EF76403D00800F550B6
:1025480005D0F6CFE9FFF7CFEAFFEF5063EC13F0C1
:10255800364A372A36C0F6FF37C0F7FFF86A050E45
:10256800F76403D00800F55005D0F6CFE9FFF7CFA0
:10257800EAFFEF500009D8A4C4EF12F0C6EF12F03A
:1025880098EF12F01200534554204556454E5420FA
:10259800202020200056494557204556454E5420B6
:1025A800202020005345542054494D452020202008
:1025B8002020005345542044415445202020202009
:1025C80020005345542F56494557204556454E54EB
:1025D8000053455420444154452F54494D4500006B
:1025E8008E0EF66E250EF76E000EF86E00EE60F099
:1025F80010EE5AF00900F5CFEEFFE550E150FAE190
:10260800200EF66E280EF76E000EF86E00EE52F0F1
:1026180010EE06F00900F5CFEEFFE550E150FAE1C3
:1026280000EE01F0330EEE6AE806FDE1000EF86EEA
:102638000001A6EF0BF0000E95EC13F0376E375043
:102648008009356E000EAAEC13F0020E95EC13F01B
:10265800376E37504009356E020EAAEC13F0930E10
:10266800356E070EAAEC13F0000E95EC13F0376EDA
:1026780037507F0B356E000EAAEC13F01200386E3F
:1026880004EC14F0A00EF4EC13F03850F4EC13F052
:102698003550F4EC13F000EC14F00B0E376EB80E56
:1026A800366E3606D8A03706362806E13728D8A46D
:1026B80060EF13F062EF13F055EF13F01200356E70
:1026C80034B069EF13F06CEF13F082826DEF13F002
:1026D800829235C083FF82848294958E8280829212
:1026E8008284829483BE7BEF13F07DEF13F074EF46
:1026F80013F08290959E1200356E04EC14F0A00E33
:10270800F4EC13F03550F4EC13F008EC14F0A10ECF
:10271800F4EC13F0FAEC13F0366E00EC14F03650CB
:102728001200356E04EC14F0D00EF4EC13F03550B2
:10273800F4EC13F008EC14F0D10EF4EC13F0FAEC0E
:1027480013F0366E00EC14F036501200366E04ECBE
:1027580014F0D00EF4EC13F03650F4EC13F03550BE
:10276800F4EC13F000EC14F0120080EC11F0D2EC51
:1027780013F01FEC13F0EEEC13F0E6EC13F093906B
:10278800819012003D6E000E346E3C5063EC13F0E5
:10279800010E346E3D5063EC13F012009486948859
:1027A800280EC66E310EC86EC79CC78E9E96A1961F
:1027B80012009EA6E2EF13F0E4EF13F0DDEF13F042
:1027C8009E9612000F0EC16E1E0E936EF19EE00EC5
:1027D80081121200F90ECB6ECA849E929D8212005D
:1027E800346E34C0C9FFDDEC13F012000CEC14F0A9
:1027F80013EC14F0C9501200C584DDEC13F012007C
:10280800C580DDEC13F01200C582DDEC13F0120078
:10281800C586DDEC13F0120040064306FF01C58AA9
:04282800C58812004D
:020000040020DA
:08000000FFFFFFFFFFFFFFFF00
:020000040030CA
:0E000000FF071F1FFF8285FF0FC00FE00F409C
:00000001FF
